:030000000200807B
:03000600020003F2
:0300030002006692
:20000900753D417401B53F0614B540028002800512018480EE853D3E745AB53D05753D41A6
:200029008006E53DFF04F53D753F0175400012018480D0758920758DFA759850D28ED29947
:20004900E53F4540700512018480F53099FD853E99C299E4F53FF54012018480E3753E20D6
:1E006900E4F53FF5409000091200DC85823575353085308102003C020087222222220A
:20008700E4F534F53575303FF53175314FF53275325FF53375336FF5349000661200DC8525
:2000A7008235AF35BF3002800FBF3102800FBF3202800FBF3314800F853081800D8531818C
:2000C70080088532818003853381D0D0D083D082D0F0D0E022AE34E5357F00BEFF07BF00C8
:2000E700047582FF22752278E53420E00B752230433401853021802EE53420E10B752231FA
:20010700433402853121801EE53420E20B752232433404853221800EE53420E3097522332B
:20012700433408853321858120852181C082C083E500C0E0C0E0C0E0C0E0AF22BF300280E7
:200147000FBF31028014BF32028019BF3328801E75D000C0D0858130801C75D008C0D085B6
:200167008131801275D010C0D0858132800875D018C0D085813385208185228222C0E0C098
:20018700F0C082C083C0D0AF35BF3002800FBF3102800FBF3202800FBF3314800F85813021
:2001A700800D85813180088581328003858133AF35BF3002800FBF3102800FBF3202800F91
:2001C700BF3314800F753531800D753532800875353380037535307430B5351174015534E0
:2001E700FEE5357F00BE0105BF0002804A7431B5351174025534FEE5357F00BE0205BF0058
:200207000280347432B5351174045534FEE5357F00BE0405BF0002801E7433B535028003AC
:200227000201B674085534FEE5357F00BE0805BF000280030201B6AF35BF3002800FBF3146
:2002470002800FBF3202800FBF3314800F853081800D85318180088532818003853381D0A9
:20026700D0D083D082D0F0D0E022AF35BF3002800FBF3102800FBF3202800FBF3314800F74
:200287005334C6800D5334BD800853346380035334DFAF35BF3002800FBF3102800FBF3208
:2002A70002800FBF3314800F753531800D753532800875353380037535307430B5351174F8
:2002C700015534FEE5357F00BE0105BF0002804A7431B5351174025534FEE5357F00BE02B1
:2002E70005BF000280347432B5351174045534FEE5357F00BE0405BF0002801E7433B5358D
:2003070002800302029974085534FEE5357F00BE0805BF00028003020299AF35BF30028017
:200327000FBF3102800FBF3202800FBF3314800F853081800D85318180088532818003854D
:0D0347003381D0D0D083D082D0F0D0E0221E
:00000001FF
