:04000000020138328F
:03000B0002013FB0
:0C001100753D20753E20753F2002000E5A
:03000E000200F3FA
:20001D00AD82AE83AFF07C0110AF027C008D828E838FF0E5081204ACEC1392AF227539416B
:20003D008538E060FB15388536E060FB1536E53C243DF8A639E53CFF04F53C7403B53C0304
:20005D00753C00745AB539057539418006E539FF04F5390536053780C7753A308538E060B3
:20007D00FB15388536E060FB1536E53C243DF8A63AE53CFF04F53C7403B53C03753C00749B
:20009D0039B53A05753A308006E53AFF04F53A0536053780C7AE897F004306208E89758D6A
:2000BD00FA759850D28ED2998537E060FB15378536E060FB15363099FDE53B243DF987991D
:2000DD00C299E53BFF04F53B7403B53B03753B000536053880D275080190003675F0401276
:2000FD00001D75080090003775F04012001D75080390003875F04012001D753B00753C0031
:20011D0090003A1202308582359000761202308582357535308530810200B20201432222A4
:06013D0022220201A232A1
:20014300E4F534F53575303FF53175314FF53275325FF53375336FF534F58975A882D28C56
:200163007523319000F3120230858235AF35BF3002800FBF3102800FBF3202800FBF331443
:20018300800F853081800D85318180088532818003853381D0D0D083D082D0F0D0E022C2BE
:2001A300AFC0E0C0F0C082C083C0D0AF35BF3002800FBF3102800FBF3202800FBF3314803B
:2001C3000F858130800D858131800885813280038581337430B5350280057535308014858F
:2001E30023357431B523067E327F0080047E317F008E23AF35BF3002800FBF3102800FBFEB
:200203003202800FBF3314800F853081800D85318180088532818003853381D0D0D083D04A
:2002230082D0F0D0E0D2AF3222858A7022C2AFAE34E5357F00BEFF07BF00047582FF227553
:200243002278E53420E00B752230433401853021802EE53420E10B752231433402853121DD
:20026300801EE53420E20B752232433404853221800EE53420E309752233433408853321C6
:20028300858120852181C082C083E500C0E0C0E0C0E0C0E0AF22BF3002800FBF310280144D
:2002A300BF32028019BF3328801E75D000C0D0858130801C75D008C0D0858131801275D065
:2002C30010C0D0858132800875D018C0D0858133852081D2AF85228222C0E0C0F0C082C051
:2002E30083C0D0AF35BF3002800FBF3102800FBF3202800FBF3314800F858130800D858123
:200303003180088581328003858133AF35BF3002800FBF3102800FBF3202800FBF33148040
:200323000F753531800D753532800875353380037535307430B5351174015534FEE5357F71
:2003430000BE0105BF0002804A7431B5351174025534FEE5357F00BE0205BF000280347467
:2003630032B5351174045534FEE5357F00BE0405BF0002801E7433B53502800302030E74F2
:20038300085534FEE5357F00BE0805BF0002800302030EAF35BF3002800FBF3102800FBF6C
:2003A3003202800FBF3314800F853081800D85318180088532818003853381D0D0D083D0A9
:2003C30082D0F0D0E022AF35BF3002800FBF3102800FBF3202800FBF3314800F5334C6803D
:2003E3000D5334BD800853346380035334DFAF35BF3002800FBF3102800FBF3202800FBF28
:200403003314800F753531800D753532800875353380037535307430B5351174015534FE62
:20042300E5357F00BE0105BF0002804A7431B5351174025534FEE5357F00BE0205BF000215
:2004430080347432B5351174045534FEE5357F00BE0405BF0002801E7433B535028003026E
:2004630003F174085534FEE5357F00BE0805BF000280030203F1AF35BF3002800FBF31028E
:20048300800FBF3202800FBF3314800F853081800D85318180088532818003853381D0D09D
:0904A300D083D082D0F0D0E02219
:1B04AC0020F71130F6138883A88220F509F6A8837583002280FEF280F5F0224F
:00000001FF
