:0400000002007D324B
:03000B000200846C
:0300110002000EDC
:03000E000200638A
:20001400753D417401B53F0614B5400280F5853D3E745AB53D05753D418006E53DFF04F592
:200034003D753F0175400080DAAE894306208E89758DFA759850D28ED299E53F454060FACD
:200054003099FD853E99C299E4F53FF54080EB753E20E4F53FF5409000141201D68582356E
:1400740075353085308102003D020088222222220200E432FF
:20008800E4F534F53575303FF53175314FF53275325FF53375336FF534F58975A882D28C12
:2000A8009000631201D6858235AF35BF3002800FBF3102800FBF3202800FBF3314800F859F
:2000C8003081800D85318180088532818003853381D0D0D083D082D0F0D0E022C2AFC0E03F
:2000E800C0F0C082C083C0D0AF35BF3002800FBF3102800FBF3202800FBF3314800F858131
:2001080030800D85813180088581328003858133AF35BF3002800FBF3102800FBF3202800F
:200128000FBF3314800F753531800D753532800875353380037535307430B53511740155A4
:2001480034FEE5357F00BE0105BF0002804A7431B5351174025534FEE5357F00BE0205BFC3
:20016800000280347432B5351174045534FEE5357F00BE0405BF0002801E7433B53502804F
:200188000302011874085534FEE5357F00BE0805BF00028003020118AF35BF3002800FBF50
:2001A8003102800FBF3202800FBF3314800F853081800D85318180088532818003853381E8
:2001C800D0D0D083D082D0F0D0E0D2AF3222C2AFAE34E5357F00BEFF07BF00047582FF2202
:2001E800752278E53420E00B752230433401853021802EE53420E10B7522314334028531E5
:2002080021801EE53420E20B752232433404853221800EE53420E309752233433408853321
:2002280021858120852181C082C083E500C0E0C0E0C0E0C0E0AF22BF3002800FBF3102809B
:2002480014BF32028019BF3328801E75D000C0D0858130801C75D008C0D08581318012757C
:20026800D010C0D0858132800875D018C0D0858133852081D2AF85228222C0E0C0F0C0829C
:20028800C083C0D0AF35BF3002800FBF3102800FBF3202800FBF3314800F858130800D853F
:2002A800813180088581328003858133AF35BF3002800FBF3102800FBF3202800FBF33149B
:2002C800800F753531800D753532800875353380037535307430B5351174015534FEE535CC
:2002E8007F00BE0105BF0002804A7431B5351174025534FEE5357F00BE0205BF00028034B8
:200308007432B5351174045534FEE5357F00BE0405BF0002801E7433B5350280030202B4A8
:2003280074085534FEE5357F00BE0805BF000280030202B4AF35BF3002800FBF3102800F6D
:20034800BF3202800FBF3314800F853081800D85318180088532818003853381D0D0D08315
:20036800D082D0F0D0E022AF35BF3002800FBF3102800FBF3202800FBF3314800F5334C648
:20038800800D5334BD800853346380035334DFAF35BF3002800FBF3102800FBF3202800FC2
:2003A800BF3314800F753531800D753532800875353380037535307430B5351174015534FD
:2003C800FEE5357F00BE0105BF0002804A7431B5351174025534FEE5357F00BE0205BF0075
:2003E8000280347432B5351174045534FEE5357F00BE0405BF0002801E7433B535028003CA
:2004080002039774085534FEE5357F00BE0805BF00028003020397AF35BF3002800FBF319D
:2004280002800FBF3202800FBF3314800F853081800D85318180088532818003853381D0C6
:0A044800D0D083D082D0F0D0E022A3
:00000001FF
