:0400000002043F3285
:03000B00020446A6
:0300110002000EDC
:03000E000203CA20
:20001400AD82AE83AFF07C0110AF027C008D828E838FF0E508120E28EC1392AF22120E437A
:20003400B5080474018001E4FD7F008D828F832275083090003975F040120031E582858385
:20005400F045F070051207A480E6752D0074FE252D4036E52D2437FF7E007D407508318F0F
:20007400828E838DF0120031AE82AF83BE0116BF0013E52D2437F8765F12047BE582F528C1
:20009400053612096E052D80C4752D0074FE252D409EE52D2437FF7E007D4075085F8F823A
:2000B4008E838DF0120031AE82AF83BE0121BF001E8536E060FB1536E52D2437F87631757A
:2000D400823812045912047BE582F5230200447401B52D06758232120459052D80AE7508BB
:2000F4003090003A75F040120031E5828583F045F070051207A480E6752D0074FE252D4038
:2001140036E52D2437FF7E007D407508328F828E838DF0120031AE82AF83BE0116BF001354
:20013400E52D2437F8765F12047BE582F529053612096E052D80C4752D0074FE252D409EDD
:20015400E52D2437FF7E007D4075085F8F828E838DF0120031AE82AF83BE0121BF001E8582
:2001740036E060FB1536E52D2437F8763275823412045912047BE582F5240200F27401B5D9
:200194002D06758232120459052D80AE75083090003B75F040120031E5828583F045F070BC
:2001B400051207A480E6752D0074FE252D4036E52D2437FF7E007D407508338F828E838D21
:2001D400F0120031AE82AF83BE0116BF0013E52D2437F8765F12047BE582F52A0536120928
:2001F4006E052D80C4752D0074FE252D409EE52D2437FF7E007D4075085F8F828E838DF0A1
:20021400120031AE82AF83BE0121BF001E8536E060FB1536E52D2437F876337582351204D7
:200234005912047BE582F5250201A07401B52D06758232120459052D80AE853D8212044AA3
:20025400AE82EE2439FE7F007D407508308E828F838DF0120031E5828583F045F07005122B
:2002740007A480D6752D0074FE252D4036E52D2437FF7E007D407508348F828E838DF01284
:200294000031AE82AF83BE0116BF0013E52D2437F8765F12047BE582F52B053612096E05F5
:2002B4002D80C4752D0074FE252D408EE52D2437FF7E007D4075085F8F828E838DF0120051
:2002D40031AE82AF83BE0121BF001E8536E060FB1536E52D2437F8763475823712045912BB
:2002F400047BE582F52602024E7401B52D06758232120459052D80AE853E8212044AAE826D
:20031400EE2439FE7F007D407508308E828F838DF0120031E5828583F045F070051207A4EF
:2003340080D6752D0074FE252D4036E52D2437FF7E007D407508358F828E838DF01200313C
:20035400AE82AF83BE0116BF0013E52D2437F8765F12047BE582F52C053612096E052D80B7
:20037400C4752D0074FE252D408EE52D2437FF7E007D4075085F8F828E838DF0120031AE5E
:2003940082AF83BE0121BF001E8536E060FB1536E52D2437F8763575823212045912047B5E
:2003B400E582F52702030C7401B52D06758232120459052D80AE75080290003675F0401244
:2003D40000149000441206E49000F21206E49001A01206E4AE894306208E89758DFA7598BA
:2003F40050D28ED2991207A4C3E52E9404E52F6480948040051207A480EE90024E1206E44B
:20041400C3E52E9404E52F6480948040051207A480EE90030C1206E47401B52E0614B52FED
:160434000280051207A480F002096E02047F222222220205193226
:20044A00AF827E00EF24D0F582EE34FFF58322AF82C2AFAE35BE3102800ABE32028009BE95
:20046A00330C80088F3980068F3A80028F3BD2AF22853C8222752D0074FE252D400BE52D7D
:20048A002437F8765F052D80EF752D0074FB252D4012E52D2423F8765FE52D2428F8765F83
:2004AA00052D80E8753D78753E78E4F534F53575303FF53175314FF53275325FF533753310
:2004CA006FF534F58975A882D28C9003CA1206E4858235753C60752E01752F00AF35BF303E
:2004EA0002800FBF3102800FBF3202800FBF3314800F853081800D8531818008853281808F
:20050A0003853381D0D0D083D082D0F0D0E022C2AFC0E0C0F0C082C083C0D0AF35BF300213
:20052A00800FBF3102800FBF3202800FBF3314800F858130800D858131800885813280034D
:20054A00858133E53CFF04F53C752D0074FD252D401DE52D2439F9E7FF24CF500EE52D246C
:20056A0039F9E52D2439F8E6FF14F7052D80DDE536600302063E745FB5280B7430B5390642
:20058A007535310206AE745FB5290B7430B53A067535320206AE745FB52A0B7430B53B0682
:2005AA007535330206AE7478B53D02801F745FB52B1A853D8212044AAE82EE2439F98707AC
:2005CA00BF3009E53DFF04F5350206AE7478B53E02801F745FB52C1A853E8212044AAE82F1
:2005EA00EE2439F98707BF3009E53EFF04F5350206AE745FB528067535310206AE745FB552
:20060A0029067535320206AE745FB52A067535330206AE745FB52B09E53DFF04F5350206B1
:20062A00AE745FB52C0280030206AEE53EFF04F5350206AE745FB523067535310206AE7457
:20064A005FB524067535320206AE745FB525057535338050745FB52608E53DFF04F53580DC
:20066A0043745FB52708E53EFF04F5358036745FB52805753531802C745FB52905753532A2
:20068A008022745FB52A057535338018745FB52B08E53DFF04F535800B745FB52C06E53E10
:2006AA00FF04F535AF35BF3002800FBF3102800FBF3202800FBF3314800F853081800D85BF
:2006CA00318180088532818003853381D0D0D083D082D0F0D0E0D2AF3222C2AFAE34E535EB
:2006EA007F00BEFF07BF00047582FF227401252EF52EE4352FF52F752278E53420E00B75D3
:20070A002230433401853021802EE53420E10B752231433402853121801EE53420E20B750B
:20072A002232433404853221800EE53420E309752233433408853321858120852181C082A4
:20074A00C083E500C0E0C0E0C0E0C0E0AF22BF3002800FBF31028014BF3202801CBF33315E
:20076A00802475D000C0D0858130802575D008C0D0858131753930801875D010C0D08581A6
:20078A0032753A30800B75D018C0D0858133753B30852081D2AF85228222C2AFC0E0C0F0FA
:2007AA00C082C083C0D0AF35BF3002800FBF3102800FBF3202800FBF3314800F8581308068
:2007CA000D85813180088581328003858133E53CFF04F53C752D0074FD252D401DE52D2402
:2007EA0039F9E7FF24CF500EE52D2439F9E52D2439F8E6FF14F7052D80DDE53660030208B0
:20080A00C9745FB5280B7430B53906753531020939745FB5290B7430B53A06753532020957
:20082A0039745FB52A0B7430B53B067535330209397478B53D02801F745FB52B1A853D826D
:20084A0012044AAE82EE2439F98707BF3009E53DFF04F5350209397478B53E02801F745F4E
:20086A00B52C1A853E8212044AAE82EE2439F98707BF3009E53EFF04F535020939745FB5B8
:20088A002806753531020939745FB52906753532020939745FB52A06753533020939745F7E
:2008AA00B52B09E53DFF04F535020939745FB52C028003020939E53EFF04F535020939742D
:2008CA005FB52306753531020939745FB52406753532020939745FB525057535338050740D
:2008EA005FB52608E53DFF04F5358043745FB52708E53EFF04F5358036745FB5280575357E
:20090A0031802C745FB529057535328022745FB52A057535338018745FB52B08E53DFF04B0
:20092A00F535800B745FB52C06E53EFF04F535AF35BF3002800FBF3102800FBF3202800F87
:20094A00BF3314800F853081800D85318180088532818003853381D0D0D083D082D0F0D0AD
:20096A00E0D2AF22152E74FFB52E02152FAF35BF3002800FBF3102800FBF32028012BF33AF
:20098A001D80155334FE80165334FD75392D800E5334FB753A2D80065334F7753B2D7430B0
:2009AA00B53507C2AF120A2380FE7478B53D137431B535067E307F0080047E317F008E3DDE
:2009CA0080217478B53E1C7431B53505753E3080127432B53505753E3180087433B53503D3
:2009EA00753E32753530AF35BF3002800FBF3102800FBF3202800FBF3314800F853081807C
:200A0A000D85318180088532818003853381D0D0D083D082D0F0D0E0223099FD759931C26E
:200A2A00993099FD75993AC2993099FD852399C2993099FD75997EC2993099FDE52814F5BF
:200A4A0099C2993099FD75997CC2993099FD759932C2993099FD75993AC2993099FDE52454
:200A6A0014F599C2993099FD75997EC2993099FDE52924FEF599C2993099FD75997CC29938
:200A8A003099FD759933C2993099FD75993AC299AE257F00AC287D00EEC39CFEEF9DFFBE4A
:200AAA000123BF00203099FDE52514F599C2993099FD75997EC2993099FDE52AFF24FEF5C4
:200ACA0099C2998034AE257F00AC297D00EEC39CFEEF9DFFBE0122BF001F3099FDE5252437
:200AEA00FEF599C2993099FD75997EC2993099FDE52AFF24FDF599C2993099FD75997CC268
:200B0A00993099FD759934C2993099FD75993AC299AE267F00AC287D00EEC39CFEEF9DFFEC
:200B2A00BE0124BF00213099FDE52614F599C2993099FD75997EC2993099FDE52BFF24FE76
:200B4A00F599C299020C07AE267F00AC297D00EEC39CFEEF9DFFBE0125BF00223099FDE5A2
:200B6A002624FEF599C2993099FD75997EC2993099FDE52BFF24FDF599C299020C07AE26C5
:200B8A007F00AC2A7D00EEC39CFEEF9DFFBE016DBF006AAE257F00AC287D00EEC39CFEEF71
:200BAA009DFFBE0124BF00213099FDE52624FEF599C2993099FD75997EC2993099FDE52B6D
:200BCA00FF24FDF599C2998034AE257F00AC297D00EEC39CFEEF9DFFBE0122BF001F30994C
:200BEA00FDE52624FDF599C2993099FD75997EC2993099FDE52BFF24FCF599C2993099FD88
:200C0A0075997CC2993099FD759935C2993099FD75993AC299AE277F00AC287D00EEC39C26
:200C2A00FEEF9DFFBE0124BF00213099FDE52714F599C2993099FD75997EC2993099FDE537
:200C4A002CFF24FEF599C299020E1FAE277F00AC297D00EEC39CFEEF9DFFBE0125BF0022E4
:200C6A003099FDE52724FEF599C2993099FD75997EC2993099FDE52CFF24FDF599C29902FE
:200C8A000E1FAE277F00AC2A7D00EEC39CFEEF9DFFBE0105BF000280028073AE257F00ACA8
:200CAA00287D00EEC39CFEEF9DFFBE0125BF00223099FDE52724FEF599C2993099FD759939
:200CCA007EC2993099FDE52CFF24FDF599C299020E1FAE257F00AC297D00EEC39CFEEF9DA7
:200CEA00FFBE0105BF00028003020E1F3099FDE52724FDF599C2993099FD75997EC29930FB
:200D0A0099FDE52CFF24FCF599C299020E1FAE277F00AC2B7D00EEC39CFEEF9DFFBE0105A9
:200D2A00BF00028003020E1FAE267F00AC287D00EEC39CFEEF9DFFBE0125BF00223099FD31
:200D4A00E52724FEF599C2993099FD75997EC2993099FDE52CFF24FDF599C299020E1FAE08
:200D6A00267F00AC297D00EEC39CFEEF9DFFBE0125BF00223099FDE52724FDF599C29930CB
:200D8A0099FD75997EC2993099FDE52CFF24FCF599C299020E1FAE267F00AC2A7D00EEC367
:200DAA009CFEEF9DFFBE016DBF006AAE257F00AC287D00EEC39CFEEF9DFFBE0124BF002173
:200DCA003099FDE52724FDF599C2993099FD75997EC2993099FDE52CFF24FCF599C2998021
:200DEA0034AE257F00AC297D00EEC39CFEEF9DFFBE0122BF001F3099FDE52724FCF599C23A
:1E0E0A00993099FD75997EC2993099FDE52CFF24FBF599C2993099FD75997CC29922D9
:1B0E280020F71130F6138883A88220F509F6A8837583002280FEF280F5F022C9
:1C0E430020F71430F6148883A88220F507E6A88375830022E280F7E49322E022BE
:00000001FF
